{
  "contractName": "MessageBoard",
  "abi": [
    {
      "inputs": [],
      "stateMutability": "nonpayable",
      "type": "constructor"
    },
    {
      "anonymous": false,
      "inputs": [
        {
          "indexed": false,
          "internalType": "string",
          "name": "newMessage",
          "type": "string"
        },
        {
          "indexed": false,
          "internalType": "address",
          "name": "updater",
          "type": "address"
        }
      ],
      "name": "MessageUpdated",
      "type": "event"
    },
    {
      "inputs": [],
      "name": "currentMessage",
      "outputs": [
        {
          "internalType": "string",
          "name": "",
          "type": "string"
        }
      ],
      "stateMutability": "view",
      "type": "function",
      "constant": true
    },
    {
      "inputs": [
        {
          "internalType": "string",
          "name": "_newMessage",
          "type": "string"
        }
      ],
      "name": "updateMessage",
      "outputs": [],
      "stateMutability": "nonpayable",
      "type": "function"
    },
    {
      "inputs": [],
      "name": "getMessage",
      "outputs": [
        {
          "internalType": "string",
          "name": "",
          "type": "string"
        }
      ],
      "stateMutability": "view",
      "type": "function",
      "constant": true
    }
  ],
  "bytecode": "0x608060405234801561001057600080fd5b506040518060400160405280600d81526020017f48656c6c6f2c20776f726c6421000000000000000000000000000000000000008152506000908051906020019061005c929190610062565b50610166565b82805461006e90610105565b90600052602060002090601f01602090048101928261009057600085556100d7565b82601f106100a957805160ff19168380011785556100d7565b828001600101855582156100d7579182015b828111156100d65782518255916020019190600101906100bb565b5b5090506100e491906100e8565b5090565b5b808211156101015760008160009055506001016100e9565b5090565b6000600282049050600182168061011d57607f821691505b6020821081141561013157610130610137565b5b50919050565b7f4e487b7100000000000000000000000000000000000000000000000000000000600052602260045260246000fd5b6105bf806101756000396000f3fe608060405234801561001057600080fd5b50600436106100415760003560e01c80631923be2414610046578063ce6d41de14610062578063d9203db614610080575b600080fd5b610060600480360381019061005b919061031c565b61009e565b005b61006a6100f1565b60405161007791906103a5565b60405180910390f35b610088610183565b60405161009591906103a5565b60405180910390f35b80600090805190602001906100b4929190610211565b507ff698274c763364531193e20038371a4660026b8b139255b9e7629629162f344881336040516100e69291906103c7565b60405180910390a150565b606060008054610100906104e8565b80601f016020809104026020016040519081016040528092919081815260200182805461012c906104e8565b80156101795780601f1061014e57610100808354040283529160200191610179565b820191906000526020600020905b81548152906001019060200180831161015c57829003601f168201915b5050505050905090565b60008054610190906104e8565b80601f01602080910402602001604051908101604052809291908181526020018280546101bc906104e8565b80156102095780601f106101de57610100808354040283529160200191610209565b820191906000526020600020905b8154815290600101906020018083116101ec57829003601f168201915b505050505081565b82805461021d906104e8565b90600052602060002090601f01602090048101928261023f5760008555610286565b82601f1061025857805160ff1916838001178555610286565b82800160010185558215610286579182015b8281111561028557825182559160200191906001019061026a565b5b5090506102939190610297565b5090565b5b808211156102b0576000816000905550600101610298565b5090565b60006102c76102c284610428565b6103f7565b9050828152602081018484840111156102df57600080fd5b6102ea8482856104a6565b509392505050565b600082601f83011261030357600080fd5b81356103138482602086016102b4565b91505092915050565b60006020828403121561032e57600080fd5b600082013567ffffffffffffffff81111561034857600080fd5b610354848285016102f2565b91505092915050565b61036681610474565b82525050565b600061037782610458565b6103818185610463565b93506103918185602086016104b5565b61039a81610578565b840191505092915050565b600060208201905081810360008301526103bf818461036c565b905092915050565b600060408201905081810360008301526103e1818561036c565b90506103f0602083018461035d565b9392505050565b6000604051905081810181811067ffffffffffffffff8211171561041e5761041d610549565b5b8060405250919050565b600067ffffffffffffffff82111561044357610442610549565b5b601f19601f8301169050602081019050919050565b600081519050919050565b600082825260208201905092915050565b600061047f82610486565b9050919050565b600073ffffffffffffffffffffffffffffffffffffffff82169050919050565b82818337600083830152505050565b60005b838110156104d35780820151818401526020810190506104b8565b838111156104e2576000848401525b50505050565b6000600282049050600182168061050057607f821691505b602082108114156105145761051361051a565b5b50919050565b7f4e487b7100000000000000000000000000000000000000000000000000000000600052602260045260246000fd5b7f4e487b7100000000000000000000000000000000000000000000000000000000600052604160045260246000fd5b6000601f19601f830116905091905056fea2646970667358221220f2d629065f013e6a1a2bc558d6376242db832fbceccda77846d6cd1af0bacd5f64736f6c63430008000033",
  "immutableReferences": {},
  "source": "// SPDX-License-Identifier: MIT\r\npragma solidity ^0.8.0;\r\n\r\ncontract MessageBoard {\r\n    string public currentMessage;\r\n\r\n    constructor() {\r\n        currentMessage = \"Hello, world!\";\r\n    }\r\n\r\n    event MessageUpdated(string newMessage, address updater);\r\n\r\n    function updateMessage(string memory _newMessage) public {\r\n        currentMessage = _newMessage;\r\n        emit MessageUpdated(_newMessage, msg.sender);\r\n    }\r\n\r\n    function getMessage() public view returns (string memory) {\r\n        return currentMessage;\r\n    }\r\n}\r\n",
  "sourcePath": "C:\\Users\\pc\\Downloads\\index\\Block-message-board\\contracts\\MessageBoard.sol",
  "compiler": {
    "name": "solc",
    "version": "0.8.0+commit.c7dfd78e.Emscripten.clang"
  },
  "schemaVersion": "3.4.16",
  "updatedAt": "2025-05-13T15:24:02.933Z",
  "networkType": "ethereum",
  "devdoc": {
    "kind": "dev",
    "methods": {},
    "version": 1
  },
  "userdoc": {
    "kind": "user",
    "methods": {},
    "version": 1
  }
}